:020000040800F2
:100000000000022081040008890400088B04000815
:100010008D0400088F04000891040008000000000F
:100020000000000000000000000000009304000831
:10003000950400080000000097040008CD060008A1
:100040009B0400089B0400089B0400089B04000814
:100050009B0400089B0400089B0400089B04000804
:100060009B0400089B0400089B0400089B040008F4
:100070009B0400089B0400089B0400089B040008E4
:100080009B0400089B0400089B0400089B040008D4
:10009000000000009B040008000000009B04000812
:1000A0009B0400089B0400089B0400089B040008B4
:1000B0009B0400089B0400089B0400089B040008A4
:1000C000000000009B040008000000009B040008E2
:1000D0009B0400089B0400089B0400089B04000884
:1000E0009B0400089B0400089B0400089B04000874
:1000F0009B0400089B0400089B0400089B04000864
:10010000000000009B0400089B0400089B040008FA
:100110009B0400089B0400089B0400089B04000843
:100120009B0400089B0400089B0400089B04000833
:100130009B0400089B040008000000000000000071
:100140009B04000800000000000000009B04000861
:100150000000000000000000000000009B040008F8
:10016000000000000000000000000000000000008F
:10017000000000000000000000000000000000007F
:1001800000000000000000009B0400089B04000821
:10019000000000000000000000000000000000005F
:1001A000000000000000000000000000000000004F
:1001B000000000000000000000000000000000003F
:1001C000000000000000000000000000000000002F
:1004000000F002F800F02CF80AA090E8000C8244FA
:100410008344AAF10107DA4501D100F021F8AFF2D7
:10042000090EBAE80F0013F0010F18BFFB1A43F0D2
:1004300001031847C0030000D0030000002300247C
:1004400000250026103A28BF78C1FBD8520728BFE4
:1004500030C148BF0B6070471FB51FBD10B510BD40
:10046000DFF80CD0FFF7F8FF00F0ACF900F01AF855
:100470000000022003B4FFF7F1FF03BC00F01CF8FA
:100480000648804706480047FEE7FEE7FEE7FEE72E
:10049000FEE7FEE7FEE7FEE7FEE7FEE7C10700082E
:1004A0000104000810B50446AFF300802046BDE803
:1004B0001040FFF7DFBF704701491820ABBEFEE7D1
:1004C0002600020041F24801C4F2020151F8442C16
:1004D000C2F3810241F20020C0F27A00DFE802F0AC
:1004E0002002072141F60030C0F2B70070470A68C9
:1004F000D2070AD00868800748F68050C0F25B0037
:100500005CBF41F60030C0F2B7000A680968C2F368
:100510000222C1F3064101314843511CB0FBF1F006
:10052000704749F64040704710B582B00120012164
:1005300000F0C0F802200024C1F20100C4F204045B
:10054000019001A9204600F051F820460221012225
:1005500000F094F802B010BD002818BF704780B5B5
:1005600000200A46C4F20400022100F087F8BDE82A
:100570008040704710B582B000240194FFF7A2FFBD
:100580000090009844F6D351C1F26201A0FB010132
:100590004FF0FF3000EB9111B4EB116F24D14EF20C
:1005A0001002CEF2000251604EF62351CEF200014D
:1005B000E0230B7007239460136051F8172CC2F3EB
:1005C00002220192019A02F0070282F00703032B34
:1005D00028BF03239840043A6FEA000038BF224640
:1005E000904040010870002002B010BDF0B591F8B5
:1005F00003C000230CF00F0E5FEACC6244BF8A7880
:100600004EEA020E0A880F24002504E00135082D69
:1006100003F104030CD022FA05F6F607F6D00668BB
:1006200004FA03F7BE430EFA03F73E430660EDE714
:10063000098800230A0A0F24002504E00135082D4B
:1006400003F104030CD022FA05F6F607F6D046684B
:1006500004FA03F7BE430EFA03F73E434660EDE7A4
:10066000BCF1480F05D0BCF1280F18BFF0BD143005
:1006700000E01030026811430160F0BD1023002A31
:1006800008BF1423C150704782B040F20001C2F28B
:1006900000010968019100900098013002D0009893
:1006A000013000900198009A081A9042FAD302B0E3
:1006B00070470000002941F22801C4F202010A68D3
:1006C0000CBF22EA000010430860704740F20000AF
:1006D000C2F20000016801310160704741F204007C
:1006E000C4F20200416A41F40051416242F2000149
:1006F000C4F202010A6842F004020A60C16A41F0D1
:100700008051C16247F20001C4F200010A6822F47C
:1007100000420A600A6842F400420A6050F8041C71
:100720004FF6FF72CFF6FE62114040F8041C50F8FD
:10073000041C41F4803140F8041C00BF50F8041C34
:100740008903FBD5416C41F001014164416C21F00A
:1007500002014164416C21F4FE014164416C41F4A9
:1007600098114164416C21F4E0614164416C41F4B1
:100770008071416450F8041C41F0807140F8041C01
:1007800050F8041C8901FBD5016821F0F0010160DB
:10079000016841F480610160016841F40051016029
:1007A000016841F400010160016841F0E06101600D
:1007B000016841F00201016001680907FCD570473A
:1007C00070470000FFF78AFFFFF7D4FEFFF7ACFE8B
:1007D00000200021FFF7C0FE4FF4FA70FFF754FF2E
:1007E00000200121FFF7B8FE4FF4FA70FFF74CFF2D
:1007F000EEE70000040800080000002004000000EC
:040800003C040008AC
:0400000508000401EA
:00000001FF
