:020000040800F2
:100000000000022031040008390400083B04000805
:100010003D0400083F0400084104000800000000FF
:100020000000000000000000000000004304000881
:1000300045040008000000004704000849040008C7
:100040004B0400084B0400084B0400084B04000854
:100050004B0400084B0400084B0400084B04000844
:100060004B0400084B0400084B0400084B04000834
:100070004B0400084B0400084B0400084B04000824
:100080004B0400084B0400084B0400084B04000814
:10009000000000004B040008000000004B040008B2
:1000A0004B0400084B0400084B0400084B040008F4
:1000B0004B0400084B0400084B0400084B040008E4
:1000C000000000004B040008000000004B04000882
:1000D0004B0400084B0400084B0400084B040008C4
:1000E0004B0400084B0400084B0400084B040008B4
:1000F0004B0400084B0400084B0400084B040008A4
:10010000000000004B0400084B0400084B040008EA
:100110004B0400084B0400084B0400084B04000883
:100120004B0400084B0400084B0400084B04000873
:100130004B0400084B040008000000000000000011
:100140004B04000800000000000000004B04000801
:100150000000000000000000000000004B04000848
:10016000000000000000000000000000000000008F
:10017000000000000000000000000000000000007F
:1001800000000000000000004B0400084B040008C1
:10019000000000000000000000000000000000005F
:1001A000000000000000000000000000000000004F
:1001B000000000000000000000000000000000003F
:1001C000000000000000000000000000000000002F
:10040000AFF3008000F004F81FB51FBD10B510BD9C
:10041000DFF80CD0FFF7F8FF00F0AEF800F01AF8A4
:100420000000022003B4FFF7F1FF03BC00F01CF84A
:100430000648804706480047FEE7FEE7FEE7FEE77E
:10044000FEE7FEE7FEE7FEE7FEE7FEE775050008CC
:100450000104000810B50446AFF300802046BDE853
:100460001040FFF7DFBF704701491820ABBEFEE721
:100470002600020010B582B00120012100F06EF8C4
:1004800002200024C1F20100C4F20404019001A979
:10049000204600F015F820460221012200F058F80D
:1004A00002B010BD002818BF704780B500200A4672
:1004B000C4F20400022100F04BF8BDE88040704710
:1004C000F0B591F803C000230CF00F0E5FEACC6288
:1004D00044BF8A784EEA020E0A880F24002504E001
:1004E0000135082D03F104030CD022FA05F6F607B6
:1004F000F6D0066804FA03F7BE430EFA03F73E434C
:100500000660EDE7098800230A0A0F24002504E0AD
:100510000135082D03F104030CD022FA05F6F60785
:10052000F6D0466804FA03F7BE430EFA03F73E43DB
:100530004660EDE7BCF1480F05D0BCF1280F18BFAD
:10054000F0BD143000E01030026811430160F0BDCE
:100550001023002A08BF1423C1507047002941F21C
:100560002801C4F202010A680CBF22EA000010430D
:10057000086070477047000082B0FFF77BFF0024DF
:100580004FF47A75642600BF00200021FFF78AFF30
:10059000019500960098411E009168B10194019860
:1005A000C0087C28F6D800BF01980130019001985E
:1005B000B0F57A7FF8D3EDE700200121FFF772FF55
:1005C000019500960098411E00280091DCD001940E
:1005D0000198C0087C28F5D8019801300190019855
:0805E000B0F57A7FF8D3EDE7D6
:0400000508000401EA
:00000001FF
